:100000006F005009130000001300000013000000EF
:100010001300000013000000130000001300000094
:100020001300000013000000130000001300000084
:08003000130000007300100032
:100038000000000000000000460500004A0500001E
:1000480000000000DA0700000000000000000000C7
:10005800DC070000DE0700000000000000000000D0
:10006800BE0F0000000000000002000000000000B9
:10007800E4070000E6070000E8070000EA070000C0
:10008800EC070000EE070000F0070000F207000090
:10009800F4070000F6070000F8070000FA07000060
:1000A800FC070000FE07000000080000020800002E
:1000B8000408000006080000080800000A080000FC
:1000C8000C0800000E0800001008000012080000CC
:1000D8001408000016080000180800001A0800009C
:1000E8001C0800001E08000020080000220800006C
:1000F8002408000026080000280800002A0800003C
:100108002C0800002E08000030080000320800000B
:100118003408000036080000380800003A080000DB
:100128003C0800003E0800004008000042080000AB
:100138004408000046080000480800004A0800007B
:100148004C0800004E08000050080000520800004B
:100158005408000056080000580800005A0800001B
:100168005C0800005E0800006008000062080000EB
:100178006408000066080000680800006A080000BB
:100188006C0800006E08000070080000720800008B
:100198007408000076080000780800007A0800005B
:1001A8007C0800007E08000080080000820800002B
:1001B8008408000086080000880800008A080000FB
:1001C8008C0800008E0800009008000092080000CB
:1001D8000000000000000000000000000000000017
:1001E8000000000000000000000000000000000007
:0801F8000000000000000000FF
:10020000130181F806C216C41AC61EC822CA26CC1B
:100210002ACE2ED032D236D43AD63ED842DA46DC76
:100220004ADECEC0D2C2D6C4DAC6DEC8E2CAE6CC46
:10023000EACEEED0F2D2F6D4FAD6FED8F3220030CF
:1002400096DA9702002083A262E123A02200F32520
:1002500010342EC09305000273A0458003A10181D4
:10026000EF10501617030020032343DF0321030080
:10027000824273901234D652739002309240A2425E
:100280003243C2435244E244724582551256A2564A
:100290003257C2575258E25872598649164AA64AEE
:1002A000364BC64B564CE64C764D865D165EA65ECA
:1002B000365FC65F13018107730020301300000012
:1002C00013000000130000001300000013000000E2
:1002D00013000000130000001300000013000000D2
:1002E00013000000130000001300000013000000C2
:1002F00013000000130000001300000013000000B2
:1003000083A20181938202E07390023417010020DE
:100310000321C1D4024182403243C2435244E244E9
:10032000724582551256A2563257C2575258E25859
:1003300072598649164AA64A364BC64B564CE64C6D
:10034000764D865D165EA65E365FC65FD652A1020A
:1003500073900230A24213018107828013000000D3
:100360001300000013000000130000001300000041
:100370001300000013000000130000001300000031
:100380001300000013000000130000001300000021
:100390001300000013000000130000001300000011
:1003A0001300000013000000130000001300000001
:1003B00013000000130000001300000013000000F1
:1003C00013000000130000001300000013000000E1
:1003D00013000000130000001300000013000000D1
:1003E00013000000130000001300000013000000C1
:1003F00013000000130000001300000013000000B1
:10040000F322003093F272FF130380781203B3E2F9
:100410006200711523205500130585FA10C12115BE
:10042000232005009302000063870200711523203A
:100430000500FD12D5BF71150CC1828000000000BF
:1004400000000000000000000000000000000000AC
:10045000000000000000000000000000000000009C
:10046000000000000000000000000000000000008C
:10047000000000000000000000000000000000007C
:10048000000000000000000000000000000000006C
:10049000000000000000000000000000000000005C
:1004A000000000000000000000000000000000004C
:1004B000000000000000000000000000000000003C
:1004C000000000000000000000000000000000002C
:1004D000000000000000000000000000000000001C
:1004E000000000000000397101436EC619A0397187
:1004F00041536AC866CA62CC5ECE19A039710153F5
:100500005AD056D252D44ED64AD826DA22DC06DE4B
:1005100033016140828241114AC026C222C406C60C
:100520008282B24D4101024D924C224CB24B4101AC
:10053000024B924A224AB249410102499244224462
:10054000B240410182807300203001A0EFF23FFAF7
:1005500037040020B70400209309F00F370900206A
:10056000370A0020B73A0000854537150140A52914
:10057000130714031C2303C62403133B15008A0727
:1005800093F7F70F1CA3938624036315660193E783
:1005900037001CA31C23238066016397370383471E
:1005A0003903930B39035D8D1375F50F01ED930737
:1005B0000A038C2313858A9A850593F5F50F8CA37E
:1005C000EF20802623806B012945EF10805969BFF9
:1005D000EFF27FF491453715014029291305401F9B
:1005E000EF10205891453715014019211305401F80
:1005F000EF102057C5B7EFF21FF241118545414575
:1006000002C202C402C68D2B0D44854711494C001D
:10061000371501407C824AC622C431268947C1442D
:100620004C00371501407C8226C622C4ED2C4C00BC
:10063000371501402312210126C622C4ED244101B1
:10064000EDBDEFF25FED0945452EEF10103F7165EE
:1006500013050520EF109041B707002083A507017F
:100660003735000013058594EF20001CB7350000D6
:10067000373500009385859513050596EF20C01A40
:100680009D3FB7070020B73500003705000093876E
:10069000C702154781461306001093850598130578
:1006A000055DEF003070B7070020B7350000370553
:1006B0000000938787021547814613060010938533
:1006C00085981305C554EF00F06DEF10E00D373439
:1006D000000013050499EF206017E5BFB71702402B
:1006E0009843B706FFF841111367170098C3D84322
:1006F00037060200758FD8C39843B706F7FEFD167C
:10070000758F98C39843B706FCFFFD16758F98C385
:10071000D843B70681FFFD16758FD8C39843B70637
:1007200000ECFD16758F98C33707FF0098C723A606
:10073000070202C402C69843C166558F98C3B71614
:10074000024005679C42F18F3EC6A24785073EC422
:10075000B24781E7A247E397E7FEB71702409C4301
:100760001397E7006357070685473EC6324785471C
:10077000631FF704B7170240D843B706C1FFFD1641
:10078000D8C3D843D8C3D84313670740D8C3D84386
:10079000758FD8C3D843B7062900558FD8C398435F
:1007A000B7060001558F98C3984393166700E3DDA1
:1007B00006FED843B7160240719BD8C3D8431367CF
:1007C0002700D8C32147DC42B18BE39EE7FE4101FD
:1007D000828002C661BF01A001A001A001A001A00A
:1007E00001A001A001A001A001A001A001A001A001
:1007F00001A001A001A001A001A001A001A001A0F1
:1008000001A001A001A001A001A001A001A001A0E0
:1008100001A001A001A001A001A001A001A001A0D0
:1008200001A001A001A001A001A001A001A001A0C0
:1008300001A001A001A001A001A001A001A001A0B0
:1008400001A001A001A001A001A001A001A001A0A0
:1008500001A001A001A001A001A001A001A001A090
:1008600001A001A001A001A001A001A001A001A080
:1008700001A001A001A001A001A001A001A001A070
:1008800001A001A001A001A001A001A001A001A060
:1008900001A001A0970100209381C1F717710020EA
:1008A00013014176172500001305452197F5FF1F19
:1008B000938545751386818163FAC50083220500FF
:1008C00023A0550011059105E3EAC5FE17F5FF1FAA
:1008D0001305C575973500209385059D6377B50091
:1008E000232005001105E36DB5FEFD42739002BCA7
:1008F000FD4273904280B78200009382028073A011
:10090000023097F2FFFF9382627393E2320073909A
:100910005230EFF0BFDC970200009382C2D2739096
:100920001234730020309C4513F7070113F8F700C9
:1009300001C7D8413368E8008E2113F7F50F39C39A
:1009400018418146854E3D4F930F800293028004EB
:10095000214E3396DE00B3F8C50063111603939859
:10096000260033131F011343F3FF3377E300B3185B
:10097000180133E7E800639FF70550C98506E39A3D
:10098000C6FD18C11307F00F6375B7045441214623
:10099000854E3D4F930F800293028004414EB398E1
:1009A000CE0033F715016392E802131726000117F2
:1009B0003313EF001343F3FFB376D3003317E8008C
:1009C000D98E639DF701232A15010506E319C6FD9B
:1009D00054C18280E39457FA10C94DB7E39757FE8C
:1009E00023281501DDB708456D8D3335A0008280C1
:1009F0000CC982804CC98280B707002023AAA702B5
:100A00008280371702405C439146B18B6385D700E3
:100A1000A1466382D706B7177A00938707201CC1C7
:100A2000371602405C423707002013070700918306
:100A3000BD8BBA9794231C41B3D7D7005CC15442F5
:100A4000A1829D8ABA969422B3D6D70014C5544287
:100A5000AD829D8A36971823B3D7E7005CC558420C
:100A60003983937637001387418036971823B3D79D
:100A7000E7021CC982805C435843C166C983758FF5
:100A8000B7F6FF1F83A6C670BD8B890713961601A4
:100A900063480600C54601466392D702C94739A894
:100AA0008946638FD702BD46638ED702C146638EE7
:100AB000D702C54601466393D700C1471DEF3747AC
:100AC000024003270780418B05C737177A001307B9
:100AD0000720B307F7021CC121D61C41858381B7CB
:100AE00001466DBF0546B547D1BF0146BD47F9B7C1
:100AF00037173D0013070790E9BFB7150240D855D7
:100B00009316F700D85563DF060411833D8B9306D7
:100B1000170037177A00130707203357D70218C179
:100B2000D455A182BD8A8DE295463307D70205834D
:100B300018C137170240585714413D8B050733D76A
:100B4000E60218C1184171B785456394B600E546C1
:100B5000E9BFBD456396B600D1463387E602C9BFFB
:100B60008906E5BF3D8B9306170037177A001307F8
:100B700007203357D702F1B799C5371702401C4FEA
:100B80005D8D08CF8280B7170240984F1345F5FF5F
:100B9000798D88CF8280EFF21F981629F577FD179F
:100BA000F58FF621DA257971D58F1EA95625FD77A7
:100BB0009387379FF58FD6212A842EC6D58F962509
:100BC000D58FB625D58F5EA55E29C207C18393F761
:100BD000F7CFD98F5EA968082D35B74701409387B5
:100BE0000780B2456319F404A25756246547B387BA
:100BF000E702C206C186984163D106040607522463
:100C00004206B3D7E702130740064186B3D6E70290
:100C1000B3F7E7029206635406028E079387270311
:100C2000B3D7E70213F77700B367D700C207C183D2
:100C30001EA4456119B292574DBF0A07C9B7920762
:100C400093872703B3D7E702BD8BD58FC5B791C56F
:100C50005E250967D98F5EA582805A25F977FD1731
:100C6000F98FD5BF93F5F51F4EA182800A216D8DB6
:100C70003335A0008280B70700209387070598438B
:100C8000636FA702D043B386C7006316D5005441F3
:100C90003E85B296D4C35041B306C500631CD7004D
:100CA000B706002083A686036306D7005443184383
:100CB000B29654C118C16303F50088C38280BA8715
:100CC0007DBFEFF2BF8341112AC6EF00F036B706B1
:100CD000002083A786033706002093868603130629
:100CE000C6033245A1EF370700209307C70A93F5E3
:100CF000F7001307C70A81C51387F700419BB705A3
:100D000000209385050523A2050098C18D65C115B6
:100D1000AE97C19B23A2070023A00700B385E7403D
:100D20009CC21CC3B707002023A2B704B70700204A
:100D300023A0B704B70700804CC31CC2032A0600D7
:100D4000B377AA0085E39307F5FF3957636CF70083
:100D50009307050113F7F70041C313F707FF410796
:100D600063EBE706814489A022872E8461A058C1E5
:100D70005CC011375840B706002093864604904265
:100D8000B307E94023A0F90063F3C7009CC2B7078B
:100D900000203367EA009387870458C09843C10452
:100DA00023200400050798C3EF00504593F7F40093
:100DB000D1CBA16793870780739007303736000047
:100DC000373500001306069C930500111305859E18
:100DD000EF10902501A0BA873707002003290704E8
:100DE00093090704E360F9F8370700200324070597
:100DF0001307070550406374F6000C40B5F59442A4
:100E0000E38286F61440044314C33307F640930686
:100E10000002E3F1E6F63305F4009376F500A1DA7B
:100E2000A167938707807390073037360000373506
:100E300000001306069C9305F00C1305859EEF1029
:100E4000B01E01A0268541016FF08FEE55C1EFF273
:100E50008FECB7070020032745FF83A7C7032A8429
:100E6000B376F7009DE2A167938707807390073000
:100E700037360000373500001306069C93054012F4
:100E80001305859EEF10501A01A0832605FF9DC211
:100E9000A167938707807390073037360000373596
:100EA00000001306069C930550121305859EEF1053
:100EB000B01701A093C7F7FFF98F232AF5FEEF00C3
:100EC000B017B7070020938707049443032744FF14
:100ED000130504FF369798C3793BB7070020938723
:100EE000C7049843050798C3EF0050316FF0EFE453
:100EF0008280B7E700E041572387E7402386E74039
:100F0000B7F700E023A0070023A20700814694C79B
:100F10000147D8C737070020832507011307401F63
:100F2000814633D6E5023D4790CBD4CB98C382802F
:100F3000EFF26FDE411102C6F32750303EC6B247D2
:100F40000D478D8B6384E702A167938707807390B9
:100F5000073037360000373500001306C6A093056A
:100F6000600B1305859EEF10300C01A0B7870020A1
:100F700093870700BD8B9DC3A167938707807390FC
:100F8000073037360000373500001306C6A093053A
:100F9000B00B1305859EEF10300901A0993FB7E70C
:100FA00000E0056723A0E710116723A0E71023A442
:100FB0000180EFF0EFB4014541016FF00FD87311DC
:100FC0000134A1679387078073900730B7F700E07B
:100FD00023A20700EF00F00711C5B7E700E0116793
:100FE00023A0E720A1679387878873900730731148
:100FF000013473002030A167938707807390073016
:10100000938781809843050798C3828013878180E6
:101010001C438DE7EFF22FD0A16793870780739071
:10102000073037360000373500001306C6A0930599
:1010300020101305859EEF10207F01A0FD171CC313
:1010400091E7A16793878788739007308280930721
:1010500085007D575CC118C55CC51CC923200500EF
:1010600082802328050082809841FD5693078500E1
:10107000631ED7001C49D843D8C10CC79CC5CCC33C
:101080001C4188C985071CC18280B687D443904221
:10109000E37DC7FECDB7544118451C4998C654C3DB
:1010A000D4436393A600D8C39843232805007D1733
:1010B00098C388438280EFF20FC641112AC6253FAC
:1010C0003245005DA1371335140041016FF0EFC6C2
:1010D000304115C2EFF22FC458451445AA87329704
:1010E00058C56364D700184158C52E85CC47EF100A
:1010F000807A6FF08FC48280EFF2EFC12A84E53DE1
:101100008344540413094402E204E18463459002D9
:10111000FD57A302F404DD3DF93D83444404130963
:101120000401E204E18463449002FD572302F404C5
:10113000F13D6FF08FC05C50E1DF4A85EF00103E5B
:1011400019C1EF00505AFD14E204E184C1B71C48F4
:10115000E9DF4A85EF00903C19C1EF00D058FD143B
:10116000E204E184C9B7EFF20FBB41111DE1A167B1
:1011700093870780739007303736000037350000BB
:10118000130646A3930500111305859EEF10C06951
:1011900001A05C5D2EC62A84BDC33841B3B7E70207
:1011A000B9EF913D3040585C1440232C0402B30742
:1011B000E602B24554C03387F600918FB6975CC4FF
:1011C000FD572302F40418C4A302F40495E11C485B
:1011D00099CB13050401EF00703411C5B7E700E0A7
:1011E000116723A0E7201D35054541016FF0EFB4DD
:1011F00013050401A93D13054402913DEDB7A16714
:10120000938707807390073037360000373500002A
:10121000130646A3930550141305859EEF10C06076
:1012200001A0EFF24FAF411121C1B3B7A502AA84CB
:1012300085EF3305B502930770FB63E7A70213053B
:1012400085042EC6BD3C2A8401CDB245AA8799C12A
:10125000930785042CC01CC044DC854522852137BA
:10126000228541016FF06FADA1679387078073906E
:1012700007303736000037350000130646A39305C4
:10128000601C1305859EEF10205A01A0EFF22FA6D7
:10129000011132C61DE1A167938707807390073063
:1012A0003736000037350000130646A39305105566
:1012B0001305859EEF10405701A02A84AE898DE565
:1012C0003C419DC3A16793870780739007303736F1
:1012D000000037350000130646A39305505513054B
:1012E000859EEF10605401A0EF00B04015E5B247B5
:1012F000014985C7A1679387078073900730373608
:10130000000037350000130646A39305A0551305CA
:10131000859EEF10605101A001497D5A930A440255
:1013200037EB00E0916B95A0B24781E7C5310145ED
:1013300059A0631509002808EF00102DC139ED29C7
:101340005D3983474404E207E18763944701230240
:10135000040483475404E207E18763944701A3022E
:1013600004046D316C002808EF00702B21ED2285FC
:10137000993329C5B2455685EF00700E2285AD3BE5
:10138000B52D19E123207B210549B531045CC9DC69
:10139000CE852285FD142D3B04DC1C4899CB13051A
:1013A0000401EF00B01711C5B7E700E0116723A0F3
:1013B000E720A939054505616FF0EF9622852D3BA1
:1013C000352DD9B722850D3B152D2285ED314DDD0B
:1013D000B9BF15E5EFF22F94A1679387078073904B
:1013E000073037360000856537350000130646A301
:1013F000938585AC1305859EEF10004301A09DCD1C
:10140000373600209306C60A814701471306C60AED
:10141000214883A846006398A80093173700B29725
:101420008CC3C8C321A891E783A806006393080072
:10143000B6870507A106E31E07FDFDF38280EFF2E4
:101440008F8D41112A842EC632C4753683474404D9
:101450007D572246E207E187B2456394E700230205
:101460000404834754047D57E207E1876394E7004F
:10147000A302040432C62EC4513E1C5CA24532466F
:1014800089E713054402EF0010022285B5314101BE
:101490006FF0AF8A370700201307C7051C4394433A
:1014A000B70700209387C70781E67D5798C38280DE
:1014B000184358471843DDBFEFF24F843709002027
:1014C000B70700209304890583A9C7082A849C4094
:1014D00088404111A388070411052EC66D3E7D5733
:1014E00093078905B245631CE40295C9B73700200C
:1014F000938747259440D84398C610479440D0C658
:1015000094401047910654C29440910614C79840E5
:101510005CCB9843050798C341016FF06F819843F6
:101520004E9440C3637A3401370700200325070631
:101530008C439105153ECDB7370700200325C7051D
:101540008C4391051536B70700209387C70798434A
:10155000E374E4FC80C3C9B7EFE25FFA37340020DC
:10156000B709002013048426370A002093848906D3
:101570009C40EDDF49345C4403A9C70013054900D2
:10158000193E13074A061C43FD171CC39C40FD1758
:101590009CC0AD3C03250903EFF05F8B4A85EFF05B
:1015A000FF8AE9B7EFE2BFF413192600AA8A4A8539
:1015B0002E8A368BBA8BBE89EFF0AFF01DC1AA849C
:1015C00013054005EFF0EFEF2A8409C904D98147DC
:1015D000C146631A0A00230A050225A02685EFF0FA
:1015E000FF867D5565A23307FA000307070033061F
:1015F000F400230AE60201C78507E396D7FEA3019C
:101600000404B94763F47703A16793870780739055
:1016100007303736000037350000130686A49305DF
:1016200070391305859EEF10202001A0130A440095
:101630005285232674032322740523240404EFF027
:101640005FA213058401EFF0DFA13D471305C9FF39
:1016500033077741269500C818CC40D023060404F0
:10166000A306040423070404A307040423080404B2
:10167000A30804045A86D6854199EFE07FD808C0B4
:101680006384090023A08900EFF0FF96B7070020CC
:10169000938747069843B7040020B7390020050711
:1016A00098C3138784051843938484051389C90E4E
:1016B0006310070E80C0984385476316F706938929
:1016C000C90E930AC9124E85D109EFF05F98E39CC9
:1016D0003AFF37350020930A852113058521EFF065
:1016E0001F97373500209309C5221305C522EFF057
:1016F0001F963735002013050524EFF05F95373529
:10170000002013058526EFF09F9437350020130540
:101710004525EFF0DF93B707002023AE5705B70745
:10172000002023A03707B7070020938707079843B7
:10173000050798C337070020130747075C54144375
:1017400063F3F6001CC35147B387E702CA97D84337
:10175000144718C454C4144723A246012324470144
:1017600098435CC8050798C3EFF05F8AB70700206D
:1017700083A78708054599CB9C40D8575C5463776D
:10178000F700B7E700E0116723A0E7206FE0BFD9BB
:10179000B707002083A78708D9F79C40D8575C5427
:1017A000E3E3E7F880C041B7EFE2FFD6B7070020D8
:1017B000B73500003715000093878707014781463A
:1017C000130600109385C5A513058555E13B054417
:1017D000631E8502EF00B020631A8502A16793871C
:1017E000078073900730B70700207D5723AEE706C8
:1017F000B707002023A4A708B707002023A60708DF
:10180000EFF00FF383A7C1806FE03FD3FD57E31BD9
:10181000F5FEA16793870780739007303736000085
:10182000856537350000130686A493850584130566
:10183000859EEF00707F01A0B70700209387C70641
:101840009843050798C38280B707002003A5C708FF
:101850008280B707002083A7C70663980718EFE2C6
:101860009FCBB70700209387C7088043050480C338
:1018700039E8B70700209387C7059843184305C781
:10188000A16793870780739007303736000085651E
:1018900037350000130686A4938575AC1305859E25
:1018A000EF00907801A03707002013070706944344
:1018B000104390C3B707002014C3938707089843C9
:1018C000050798C3C13E370600209307C6079C430F
:1018D00037370020B70500201306C6071307C70EC9
:1018E0009385850501456375F4029C41D146DC571B
:1018F000B387D7023E971843854763F3E700054552
:10190000B707002083A7070991C305456FE0FFC211
:10191000370E0020B70E0020514F9307CE05944399
:10192000944281E6FD571CC2C9B79C43DC47DC47A3
:10193000D4436374D40014C24DBF83A8870003A8A6
:10194000C700D44B1383470023A4080123221801A6
:1019500083A846006394680023A2060103A806003A
:1019600023AA07007D1823A00601945795CA03A84F
:10197000C70183A8070283AF46002324180183A868
:10198000070223A208011388870163940F0123A291
:10199000160103A8060023A407027D1823A0060150
:1019A00093864E0703A8C70283A8060063F40801C4
:1019B00023A00601B306E803BA9683A8460083AFC6
:1019C000880023A4170123A6F70183AF880023A270
:1019D0006F0023A46800D4CB9C4285079CC29C4125
:1019E000DC57E36CF8F205450DBFB707002093877D
:1019F000470898430145050798C38280EFE21FB06E
:101A0000370400201304C4061C40411185E7A16778
:101A10009387078073900730373600008565373528
:101A20000000130686A49385358B1305859EEF0071
:101A3000B05F01A0EFF02FDC1C40FD171CC01C4064
:101A400089CB01452AC6EFF06FDC324541016FE0DA
:101A50003FAEB707002083A74706E5D7B73600207B
:101A600037350020814793860624370F0020130561
:101A7000C50ED14837030020370E0020854E59A8E7
:101A8000DC46DC47CC4F9053985790C503A807021B
:101A90002322B80003284700938587016313B80009
:101AA00050C3104323A407027D1610C38C47D047B0
:101AB000D84B1388470090C54CC24C436393050133
:101AC00050C3104323AA07007D1610C313074F0706
:101AD000D0570C4363F3C50010C3330716032A978E
:101AE0004C4383AF85008CC723A6F70183AF8500E5
:101AF00023A20F0123A405010C43D8CB85050CC3F9
:101B000013078305184358576366E60013070E0949
:101B10002320D70198422DF799C3EFF0BF97B7075D
:101B200000201387470804431384470891CC3709E2
:101B300000208549393B09C59307090923A03701CE
:101B4000FD14EDF823200400B707002083A7070940
:101B5000E38907EEB7E700E0116723A0E72005451A
:101B6000D5B519E5B7E700E0116723A0E72082802B
:101B7000EFE27F9AB707002083A7C70641119DC3F4
:101B8000A167938707807390073037360000373599
:101B90000000130686A4930590541305859EEF005C
:101BA000B04801A02AC6493932458145EFF0DF909F
:101BB000B13511E5B7E700E0116723A0E720410147
:101BC0006FE0BF97B707002003A7C706B70700203D
:101BD0009387070901C7054798C3828023A00700A0
:101BE000B707002013874707184313864707B737FF
:101BF00000209387C70E5148B3060703B385D7006B
:101C0000884115C5C841A106BE964841C8C16314A4
:101C1000D5005441D4C1D146B306D702B697DC43B0
:101C2000D447B707002023ACD70418C2828015E739
:101C3000EFE27F8EA1679387078073900730373676
:101C40000000856537350000130686A4938525C0FE
:101C50001305859EEF00503D01A07D1771BFEFE297
:101C60009F8B05E5A1679387078073900730373610
:101C70000000856537350000130686A49385C5C12D
:101C80001305859EEF00503A01A0B70700202E846F
:101C900083A58705E105EFF02FBD85452285EFF08F
:101CA000BF816FE09F89EFE21F872A8705E5A16763
:101CB0009387078073900730373600008565373586
:101CC0000000130686A4938525C51305859EEF00A5
:101CD000B03501A0B70700209387870554432E85B0
:101CE0008C4303A88600D4CD8C4323A0050303A80E
:101CF00007008C46610823A2050103A807009C4346
:101D0000610823A4060198D71C4385071CC311C290
:101D10007D55B285EFF04FFA6FE03F825C45DC47BE
:101D200095E7EFE24FFFA167938707807390073035
:101D300037360000856537350000130686A4938585
:101D400025C81305859EEF00302E01A0D04F945377
:101D500098579385870114C6D0C250436313B600C9
:101D600054C3144323A40702FD1614C337070020ED
:101D70000327C706D45725EF8C47D047D84B90C5CB
:101D8000D04748434CC2938547006313B50050C306
:101D9000104323AA07007D1610C33707002013073E
:101DA000470710436373D60014C351473386E602D6
:101DB000373700201307C70E32975043084690C7A5
:101DC000C8C708464CC10CC6D8CB1C430145850783
:101DD0001CC3B707002083A78705DC5763F8D7002B
:101DE000B7070020054723A8E70805458280373755
:101DF00000201307072450430846D0CF88D3084655
:101E00004CC10CC698D7D1B7B707002083A70708E5
:101E10001CC1B707002083A7C7085CC18280EFE21E
:101E20008FEF411105E5A167938707807390073015
:101E300037360000856537350000130686A4938584
:101E4000D5CF1305859EEF00301E01A085E5A16763
:101E500093870780739007303736000085653735E4
:101E60000000130686A49385E5CF1305859EEF0039
:101E7000B01B01A02EC62AC4EFF0EF973707002051
:101E8000B70700201307870583A6C7081C43224510
:101E9000B24583C7170599CB1C43A38807040544A3
:101EA000EFF0CF96228541016FE02FE99C417D57ED
:101EB0000144E387E7FE37060020032606080328CF
:101EC000050058416307C80063E5E60023A005004C
:101ED000F9B73386E640E37BF6FE958FBA979CC14F
:101EE0002537014475BFB7070020054723A8E70839
:101EF0008280B707002083A78708054581CBB707F5
:101F0000002003A5C7061335150006058280EFE201
:101F10008FE037040020EFF00F8E1304040A1C40FA
:101F2000B1E7373500201309C5271305C527EFF0A2
:101F30000F92373500209304052913050529EFF08A
:101F40000F91B707002023AA27090146B7070020F1
:101F5000C145114523AC9708EFF0AFAC08C019C5D7
:101F6000B7350000938585A8EFF0AFC6EFF00F8A74
:101F70006FE0AFDCEFE22FDA4CC108C9AA876362D9
:101F8000B602184D158E0545637BE6009385470024
:101F9000B707002003A58709EFF00F8D01456FE01B
:101FA000CFD96375D6000545E3FBD5FE9385470081
:101FB000B707002003A54709C5B7EFE2CFD52A84AC
:101FC000AE8432890C4CA6864A86A69522855D375A
:101FD00019E16FE08FD61C4C2285BE941C5082976D
:101FE000D5B7EFE24FD3B707002083A747094111C8
:101FF000AA84DC472EC6C04713054400EFF0AF8922
:1020000083474402324613F7470011CBA685228549
:102010006D371C502285829741016FE00FD2F99BEA
:102020002302F402FDB7EFE20FCF3704002093063E
:10203000440998421C4391EBB70700209387870916
:10204000904398C390C26FE04FCF5C47FD558843E3
:10205000493FF1BFEFE2AFC90D694111B70A002056
:10206000B7090020370B0020B70B0020130949A641
:1020700083A74A09984329CBDC47814C03AC07006E
:10208000EFF08FFBEFF04FFC83A7C9092A849384FC
:10209000C909130A0B0A636CF50288C0638F0C022E
:1020A00083A78B0990431336160003250A00B30556
:1020B0008C40EFF0CFB8EFF07F9411EDB7E700E080
:1020C000116723A0E72001A8854C014C55BFA13F13
:1020D00080C0EFF0BF92214C05A00146E36785FD6B
:1020E000EFF0DF91A2856285ED3DF5B79247B245ED
:1020F0008297824763DD070003250A0001468A852F
:10210000EFF0CF9835D582472245E3C107FE224440
:102110005C4895E3EFF04FF39C40AA8C6373F500A5
:102120001937824723A09401FD17E367FCFC8A0757
:10213000CA979C43828713054400EFE0DFF5D9BFBF
:10214000834744020C4C924693E717002302F402A3
:102150006686B6952285393D45D18347440213F7FB
:10216000470019CB1C4C924566862285BE95B13539
:102170001C502285829749B7F99B2302F402CDBFF8
:1021800083474402F99B2302F402BDB7834744020C
:10219000924593E717002302F4020CCC95E1A16766
:1021A000938707807390073037360000373500007B
:1021B000130606A9930590351305859EB52501A044
:1021C000E6866686E695228575333DB783474402E9
:1021D00013F7270045FB2285EFE05FC731BFEFE231
:1021E0008FB33533B707002083A7070A95E3A167AC
:1021F000938707807390073037360000373500002B
:10220000130606A9930590111305859E312D01A093
:10221000B7070020B7350000372500009387470A2D
:102220003947814613060010938585AA1305450595
:10223000EFF04FB74DDD6FE04FB0B707002083A739
:10224000070137177A0013070720B3D7E7023707CC
:10225000002093F7F70F2305F70A1307803EB38793
:10226000E702370700202314F70A8280EFE2AFAAC3
:102270002A841165011185451105EFE0FF8F930751
:1022800000207C82371501408D473EC44C00E14759
:10229000130505803EC6EFE00FE922C83744014030
:1022A000B70708000C08130504803ECC02CA231EA1
:1022B0000100EFE05F8E854513050480EFE03F9954
:1022C00005616FE08FA7EFE26FA3B7440140AE89CD
:1022D0003289014493840480634524014A856FE078
:1022E0002FA5930500042685EFE05F987DD9B3877D
:1022F00089008385070026850504C205C181EFE0BA
:102300007F96D9BF011106CE2EC60DCD1841AA87E2
:1023100005C358417D5511CB8546631BD7009847AF
:102320002300070023A207000545F24005618280D3
:102330009847B24614A39847050798C7D8437D1716
:10234000D8C3DDB705466C00BD3FF9BF797122D413
:1023500026D24ECE52CC56CA06D64AD05AC82A8A5F
:10236000AE8A328481449309000263440602B38733
:102370009A00838707009DE363D6840263D2E40258
:10238000198C93F726009309000281C719E393097A
:102390000003858A01499DE6228929A88504C1BFD9
:1023A000058CC5B70144F1BFCE8552853AC6993F29
:1023B00032477D19E34A20FF228963530400014913
:1023C0003304244163CBE402CA84B3872441D69703
:1023D000838507009DED2289634120056353040036
:1023E000014433059400B250225492540259F249E8
:1023F000624AD24A424B45618280B3049740268BA1
:102400009305000352857D1BF53DE31B0BFE2699CA
:1024100065BF5285C53D85044DBFCE855285DD35EE
:102420007D195DBF5D71A6C252DC86C6A2C4CAC05A
:102430004EDE56DABA843E8A95E1930700030147DF
:10244000D28626862C08FC841137B6402644964452
:102450000649F259625AD25A616182802A893684C9
:10246000C68A91CAA94701446317F60063D50500DF
:10247000B305B0400544A30701029307F102A54646
:10248000130568FC33F7C50263D3E6002A971307E8
:102490000703A38FE7FE9389F7FF33D7C50263F7DE
:1024A000C50401CCB9C413772A0021C79305D00213
:1024B0004A8542C6813D3248FD1493774A0099CF40
:1024C00093071006930500034A85631CF8021D3D1F
:1024D000930580074A853D350904F9145687D2864D
:1024E0002686CE854A859D35229585B7BA85CE87C5
:1024F00051BF1307D002A38FE9FE01449389E7FF80
:102500006DBF093593058005F1B70145828001450E
:10251000828039715AD0373B000022DC26DA4AD853
:102520004ED652D456D25ECE62CC06DE66CAAA8998
:102530002E893284014A8144930B5002930AB002DF
:10254000294C130B0BAB8305090085E56385090056
:1025500081454E85453BF250625426854259D254FE
:10256000B259225A925A025BF24B624CD24C216110
:102570008280638775014E85713385040509E1B753
:1025800083071900930C1900639977019305500292
:102590004E858D3B85046689D5B7CDDB63875705AE
:1025A00063C8FA00130730026384E704814705A07B
:1025B0001307D002638AE70013070003E398E7FEDE
:1025C000930C2900894721A0930C29008547038794
:1025D0000C006303570563C1EA0293063002630BE4
:1025E000D70266890146A54535A8930C29007DBF11
:1025F000930C29009147E1BF9306D0026309D700ED
:1026000093060003E31FD7FC93E7270031A0850C56
:102610008547C1BF93E74700850CE1B733068603C2
:102620000509369603070900930607FD13F5F60F13
:10263000E3F6A5FE9305E0029946631EB70005097F
:102640008146A54503070900130707FD1375F70F1A
:1026500063F5A502368A030709009305A006630106
:10266000B70A63C1E5029305C004630BB70893057D
:1026700080066300B70881452DA0B386860305094F
:10268000BA96C9B793054007630CB7069305A00730
:102690006308B7061305C00681456314A700050942
:1026A000914503070900130500061308100663444B
:1026B000E50013081004130570066340E5061305D2
:1026C00050066354A71413057004634DE502930587
:1026D0005004635CB71293063004E311D7EA184044
:1026E000930C4400A30601005886BE8601476C0087
:1026F00041A0030519008145E315E5FA090955B71D
:10270000050995BF93063006E30BD7FC63C6E606C2
:10271000930680056303D70295B5930630076301DE
:10272000D70463C8E6029306F006630DD70A930642
:10273000000793E74700E313D7E4D1CD1D04937559
:1027400084FFC288138485003E880147B287C14652
:102750003DA893065007630FD704930680075DBF1B
:102760001840930C4400DA8511C3BA855287BE869F
:102770004E85EFF0BFBD25A88DC11D04937584FF64
:10278000C288138485003E880547B287A946D04198
:102790008C414E859D3BAA94D5B3930C4400D288BE
:1027A0003287854629460C404E85EFF0BFC7AA9474
:1027B0006684E9B399C91D04937584FFC2881384A4
:1027C00085003E880147B287D1B7930C4400D28878
:1027D00032878146C1BF3287930C4400D28881463C
:1027E0004146D1B781CD1D04937584FFC2881384FF
:1027F00085003E880147B287A14651BF3287930CBE
:102800004400D2888146214679BF1D04937584FF18
:10281000138485003287D0418C41C2884E853E8822
:10282000B687A946ED3185BF39712ED232D4AA853B
:102830005010014506CE36D63AD83EDA42DC46DEA6
:1028400032C6EFF01FCDF24021618280011122CC0F
:1028500026CA06CE1C21AA840144DC878307F10026
:10286000050499EFA9479305F10005460145DC876A
:10287000EFF07FA52285F2406244D2440561828058
:1028800005469305F1000145EFF0FFA3B3878400EF
:102890009C23DC87E1B7B3C7A5008D8B3307C50048
:1028A00081E78D4763EDC700AA87637EE508942121
:1028B00085078505A38FD7FEE3EBE7FE828093763D
:1028C0003500AA8789CA942185078505A38FD7FE7D
:1028D00093F63700C5BF9376C7FF138606FE63F0F5
:1028E000C70683A3050083A2450083AF850003AF1D
:1028F000C50083AE050103AE450103A3850183A88E
:10290000C5019385450223A0770003A8C5FF23A234
:10291000570023A4F70123A6E70123A8D70123AA80
:10292000C70123AC670023AE17019387470223AE8C
:1029300007FF75B790419107910523AEC7FEE3EB02
:10294000D7FEE3E6E7F6828053797374656D436CD6
:102950006B3A25640D0A00005631302E342E3600B5
:102960004672656552544F53204B65726E656C20FC
:1029700056657273696F6E3A25730D0A0000000088
:102980007461736B320000007461736B310000007E
:1029900073686F756C646E27742072756E20617435
:1029A00020686572652121006B65792070726573FE
:1029B00073212121206161613D25640D0A00000021
:1029C0002E2E2F4672656552544F532F706F7274BE
:1029D00061626C652F4D656D4D616E672F68656135
:1029E000705F342E63000000657272206174206C89
:1029F000696E65202564206F662066696C652022FB
:102A00002573222E200D0A20000000002E2E2F46B6
:102A100072656552544F532F706F727461626C65AA
:102A20002F4743432F524953432D562F706F7274D3
:102A30002E6300002E2E2F4672656552544F532F81
:102A400071756575652E63002E2E2F467265655271
:102A5000544F532F7461736B732E630049444C457C
:102A60000000000040210000402100008021000003
:102A70008C210000CC2100004021000040210000FA
:102A8000802100008C210000546D72510000000074
:102A90002E2E2F4672656552544F532F74696D6503
:102AA00072732E6300000000546D72205376630031
:082AB000286E756C6C29000012
:102AB80000000000010203040102030406070809DC
:102AC80000D8B80502040608AAAAAAAA0E0000009F
:082AD800008000200000000056
:00000001FF
